:10000000C08C0020011A000069C60000ED19000034
:10001000ED190000ED190000ED190000ED190000C8
:10002000000000000000000000000000651B000050
:10003000ED19000000000000FD1A0000ED1900009D
:10004000C11C0000C11C0000C11C0000C11C00003C
:10005000C11C0000C11C0000C11C0000C11C00002C
:10006000C11C0000C11C0000C11C0000C11C00001C
:10007000C11C0000C11C0000C11C0000C11C00000C
:10008000C11C0000C11C0000C11C0000C11C0000FC
:10009000C11C0000C11C0000C11C0000C11C0000EC
:1000A000C11C0000C11C0000C11C0000C11C0000DC
:1000B000C11C0000C11C0000C11C0000C11C0000CC
:1000C000C11C0000C11C0000C11C0000C11C0000BC
:1000D000C11C0000C11C0000C11C0000C11C0000AC
:1000E000C11C0000C11C0000C11C0000C11C00009C
:1000F000C11C0000C11C0000C11C0000C11C00008C
:10010000C11C0000C11C0000C11C0000C11C00007B
:10011000C11C0000C11C0000C11C0000C11C00006B
:10012000C11C0000C11C0000C11C0000C11C00005B
:10013000C11C0000C11C0000C11C0000C11C00004B
:10014000C11C0000C11C0000C11C0000C11C00003B
:04015000C11C0000CE
:1001580081F0004102E000BF83F0004330B54FEA70
:1001680041044FEA430594EA050F08BF90EA020FDD
:100178001FBF54EA000C55EA020C7FEA645C7FEA70
:10018800655C00F0E2804FEA5454D4EB5555B8BF93
:100198006D420CDD2C4480EA020281EA030382EA04
:1001A800000083EA010180EA020281EA0303362D96
:1001B80088BF30BD11F0004F4FEA01314FF4801C69
:1001C8004CEA113102D0404261EB410113F0004F7B
:1001D8004FEA03334CEA133302D0524263EB430332
:1001E80094EA050F00F0A780A4F10104D5F1200ED0
:1001F8000DDB02FA0EFC22FA05F2801841F100012B
:1002080003FA0EF2801843FA05F359410EE0A5F1FE
:1002180020050EF1200E012A03FA0EFC28BF4CF02F
:10022800020C43FA05F3C01851EBE37101F00045E5
:1002380007D54FF0000EDCF1000C7EEB00006EEBF2
:100248000101B1F5801F1BD3B1F5001F0CD349087C
:100258005FEA30004FEA3C0C04F101044FEA4452D3
:1002680012F5800F80F09A80BCF1004F08BF5FEA5A
:10027800500C50F1000041EB045141EA050130BD3A
:100288005FEA4C0C404141EB0101013C28BFB1F54C
:10029800801FE9D291F0000F04BF01460020B1FA97
:1002A80081F308BF2033A3F10B03B3F120020CDA6A
:1002B8000C3208DD02F1140CC2F10C0201FA0CF048
:1002C80021FA02F10CE002F11402D8BFC2F1200CAD
:1002D80001FA02F120FA0CFCDCBF41EA0C01904063
:1002E800E41AA2BF01EB0451294330BD6FEA0404AC
:1002F8001F3C1CDA0C340EDC04F11404C4F1200297
:1003080020FA04F001FA02F340EA030021FA04F3A8
:1003180045EA030130BDC4F10C04C4F1200220FAFF
:1003280002F001FA04F340EA0300294630BD21FA3D
:1003380004F0294630BD94F0000F83F4801306BF03
:1003480081F480110134013D4EE77FEA645C18BFF7
:100358007FEA655C29D094EA050F08BF90EA020F8E
:1003680005D054EA000C04BF1946104630BD91EA86
:10037800030F1EBF0021002030BD5FEA545C05D189
:100388004000494128BF41F0004130BD14F58004C8
:100398003CBF01F5801130BD01F0004545F0FE413C
:1003A80041F470014FF0000030BD7FEA645C1ABF71
:1003B800194610467FEA655C1CBF0B46024650EAA8
:1003C800013406BF52EA033591EA030F41F40021D4
:1003D80030BD00BF90F0000F04BF0021704730B55A
:1003E8004FF4806404F132044FF000054FF000012F
:1003F80050E700BF90F0000F04BF0021704730B5F0
:100408004FF4806404F1320410F0004548BF4042C4
:100418004FF000013EE700BF42004FEAE2014FEA19
:1004280031014FEA02701FBF12F07F4393F07F4FF4
:1004380081F06051704732F07F4208BF704793F0F7
:100448007F4F04BF41F40021704730B54FF460740A
:1004580001F0004521F000411CE700BF50EA01020D
:1004680008BF704730B54FF000050AE050EA0102B6
:1004780008BF704730B511F0004502D5404261EB26
:1004880041014FF4806404F132045FEA915C3FF467
:10049800D8AE4FF003025FEADC0C18BF03325FEA04
:1004A800DC0C18BF033202EBDC02C2F1200300FAB5
:1004B80003FC20FA02F001FA03FE40EA0E0021FADA
:1004C80002F11444BDE600BF70B54FF0FF0C4CF4C8
:1004D800E06C1CEA11541DBF1CEA135594EA0C0F7A
:1004E80095EA0C0F00F0DEF82C4481EA030621EAB5
:1004F8004C5123EA4C5350EA013518BF52EA0335F0
:1005080041F4801143F4801338D0A0FB02CE4FF0A1
:100518000005E1FB02E506F00042E0FB03E54FF0D1
:100528000006E1FB03569CF0000F18BF4EF0010EC9
:10053800A4F1FF04B6F5007F64F5407404D25FEAC5
:100548004E0E6D4146EB060642EAC62141EA555178
:100558004FEAC52040EA5E504FEACE2EB4F1FD0CBA
:1005680088BFBCF5E06F1ED8BEF1004F08BF5FEA38
:10057800500E50F1000041EB045170BD06F00046EA
:1005880046EA010140EA020081EA0301B4EB5C0497
:10059800C2BFD4EB0C0541EA045170BD41F480118F
:1005A8004FF0000E013C00F3AB8014F1360FDEBFB4
:1005B800002001F0004170BDC4F10004203C35DA90
:1005C8000C341BDC04F11404C4F1200500FA05F313
:1005D80020FA04F001FA05F240EA020001F00042B4
:1005E80021F0004110EBD37021FA04F642EB06012A
:1005F8005EEA430E08BF20EAD37070BDC4F10C0454
:10060800C4F1200500FA04F320FA05F001FA04F217
:1006180040EA020001F0004110EBD37041F1000103
:100628005EEA430E08BF20EAD37070BDC4F120050E
:1006380000FA05F24EEA020E20FA04F301FA05F276
:1006480043EA020321FA04F001F0004121FA04F21E
:1006580020EA020000EBD3705EEA430E08BF20EAEE
:10066800D37070BD94F0000F0FD101F00046400028
:1006780041EB010111F4801F08BF013CF7D041EAAA
:10068800060195F0000F18BF704703F000465200AE
:1006980043EB030313F4801F08BF013DF7D043EA7F
:1006A8000603704794EA0C0F0CEA135518BF95EA35
:1006B8000C0F0CD050EA410618BF52EA4306D1D1BC
:1006C80081EA030101F000414FF0000070BD50EADB
:1006D800410606BF1046194652EA430619D094EA65
:1006E8000C0F02D150EA013613D195EA0C0F05D14F
:1006F80052EA03361CBF104619460AD181EA0301A3
:1007080001F0004141F0FE4141F470014FF000005A
:1007180070BD41F0FE4141F4780170BD70B54FF0F5
:10072800FF0C4CF4E06C1CEA11541DBF1CEA135575
:1007380094EA0C0F95EA0C0F00F0A7F8A4EB050457
:1007480081EA030E52EA03354FEA013100F088804E
:100758004FEA03334FF0805545EA131343EA126317
:100768004FEA022245EA111545EA10654FEA0026CC
:100778000EF000419D4208BF964244F1FD0404F585
:10078800407402D25B084FEA3202B61A65EB0305E1
:100798005B084FEA32024FF480104FF4002CB6EB9E
:1007A800020E75EB030E22BFB61A754640EA0C001E
:1007B8005B084FEA3202B6EB020E75EB030E22BF5E
:1007C800B61A754640EA5C005B084FEA3202B6EB9F
:1007D800020E75EB030E22BFB61A754640EA9C005E
:1007E8005B084FEA3202B6EB020E75EB030E22BF2E
:1007F800B61A754640EADC0055EA060E18D04FEAEC
:10080800051545EA16754FEA06164FEAC30343EA8B
:1008180052734FEAC2025FEA1C1CC0D111F4801F58
:100828000BD141EA00014FF000004FF0004CB6E751
:1008380011F4801F04BF01430020B4F1FD0C88BFF0
:10084800BCF5E06F3FF6AFAEB5EB030C04BFB6EBFB
:10085800020C5FEA500C50F1000041EB045170BDEE
:100868000EF0004E4EEA113114EB5C04C2BFD4EB1B
:100878000C0541EA045170BD41F480114FF0000E9F
:10088800013C90E645EA060E8DE60CEA135594EA1B
:100898000C0F08BF95EA0C0F3FF43BAF94EA0C0F1E
:1008A8000AD150EA01347FF434AF95EA0C0F7FF493
:1008B80025AF104619462CE795EA0C0F06D152EAE7
:1008C80003353FF4FDAE1046194622E750EA4106CB
:1008D80018BF52EA43067FF4C5AE50EA41047FF4DC
:1008E8000DAF52EA43057FF4EBAE12E74FEA41023F
:1008F80012F5001215D211D56FF47873B3EB62526A
:1009080012D94FEAC12343F0004343EA505311F090
:10091800004F23FA02F018BF404270474FF0000022
:10092800704750EA013005D111F0004008BF6FF060
:10093800004070474FF00000704700BF4A0011D2D6
:1009480012F5001211D20DD56FF47873B3EB625221
:100958000ED44FEAC12343F0004343EA505323FA2D
:1009680002F070474FF00000704750EA013002D1A2
:100978004FF0FF3070474FF0000070470000000054
:100988002DE9F04F8BB004460D4688470CF04EF821
:1009980064270646A847013FFCD10CF047F85049A8
:1009A800054620460CF050FCE0B14E4FDFF8388188
:1009B8003B7813B1D8F80030A3B121464B480BF06F
:1009C8005FFD4B4B4B4A1B684B480193D8F80030EE
:1009D80000934A4B12681B6839780BF051FD0BB035
:1009E800BDE8F08FA81BFFF7F5FC00224FF07C5301
:1009F800FFF76AFD0022424BFFF790FE0022414BB1
:100A080006460F46FFF760FD0022804689463046BD
:100A180039463D4BFFF758FD00223A4BFFF754FD8E
:100A280032463B46CDE9060100203849FFF776FEFD
:100A3800CDE9080149464046FFF758FF0546DDE97C
:100A48000601FFF753FF8246DDE90801FFF74EFF75
:100A580083462846FFF7CEFC02460B4640464946E9
:100A6800FFF77AFB0022274BFFF72EFDFFF73EFF2B
:100A780080465846FFF7BEFC02460B46DDE90801F2
:100A8800FFF76AFB00221E4BFFF71EFDFFF72EFF44
:100A980011A3D3E90023CDE903B039463046FFF767
:100AA80013FDFFF74BFF02905046FFF7A3FC0246E9
:100AB8000B46DDE90601FFF74FFB0022104BFFF75D
:100AC80003FDFFF713FF4346CDE900A02A46214660
:100AD8000F480BF0D5FC82E70000000080848E41AF
:100AE8000ADA0000FC1A00200000002019DA0000D1
:100AF800F00300200800002050DA00000400002065
:100B08000000594000408F4000003E400000F03F88
:100B180092DA00000449431E0F3013F8012F8A5C53
:100B280083421A70F9D170478BDC00004FF4806360
:100B38000C22024902480BF068BB00BF0D1B0020C5
:100B48008BDD000010B5174B174C1B78174A88B07F
:100B580073B96FF088011360216000B3144B154816
:100B68001A68154B196808B0BDE810400BF088BC2E
:100B78000023136006924FF4886205920F4A1048CA
:100B880004924FF4806203920E4A0093CDE9013239
:100B98000D490C230D4A00680CF076FA206008B065
:100BA80010BD00BFFC1A002000000020F003002048
:100BB80004000020C4DA0000080000200D1B0020FB
:100BC800F40300204D1F0020000150054D23002094
:100BD8002DE9F04306460C463E4B3F4AA3B0CDE90B
:100BE80002233E4B06AD0493A3F16463A3F5E333FC
:100BF800A3F5DF7305933A4B03F120072A461868DB
:100C08005968083303C2BB421546F7D1354B0E94D9
:100C18001A6812AC0F925A689B681092119302AD31
:100C28000FCD0FC40FCD0FC40FCD0FC495E80F0023
:100C380084E80F000A244FF00C080D270E254FF00A
:100C48000F0912A8082304220021CDF800800BF018
:100C5800E9F809230522012100970BF0E3F80A239C
:100C68000622022100950BF0DDF80B230722032151
:100C7800CDF800900BF0D6F80A2305220021CDF814
:100C880000900BF0CFF80B2306220121CDF800804D
:100C98000BF0C8F808230722022100970BF0C2F8CE
:100CA80009230422032100950BF0BCF8013CC2D1B2
:100CB8000346304602A906F1400453F8042B51F8C4
:100CC800045B2A4440F8042BA042F6D123B0BDE8C7
:100CD800F08300BF6E64203365787061322D6279CD
:100CE800592300204D2300202DE9F04FADB00021FD
:100CF8000CA804AD0CACFFF76BFF0FCC0FC594E844
:100D08000F0085E80F0001211CA8FFF761FF0024F0
:100D1800402302216E4FDFF8BC8104AD002204EBB2
:100D2800070E0DF1700C04EB08061EF8010B1CF8F9
:100D3800019B013280EA09009A4206F8010BF4D1BE
:100D48001C44B4F5806F0AD21CA84E1CFFF740FF64
:100D5800C4F58063402B28BF40233146DEE76C464C
:100D680095E80F004FF0000984E80F00019A20F081
:100D78007C431C93930143EA9063029923F07C43DC
:100D880023F0FC031D930B0343EA125323F07C4327
:100D9800039A23F47C531E93930443EA9133C2F3DA
:100DA800132223F07C4323F47C2320920021142275
:100DB80021A81F930CF024FADDE90847DDE90A654C
:100DC80008EB09011CA809F110090BF063F8B9F543
:100DD800806FF5D100234FF48062CDE90033002302
:100DE80069461CA8CDE902230BF054F8229B239AEC
:100DF80023F07C4B02EB9369249B259A03EB9968BB
:100E080002EB9862219B4FEA926E0EEB8E0E9E4487
:100E18002EF07C430BEB9E6B05330BEB936C29F0A8
:100E28007C4000EB9C6028F07C4101EB906122F053
:100E38007C4A42F07C4202EB91628EEA03032CF07A
:100E48007C4C03EAE2738CEA0B0C83EA0E030CEA8F
:100E5800E27C88EA010E8BEA0C0C89EA00000EEAB3
:100E6800E27E23F07C438EEA080E00EAE2708AEA0A
:100E7800020843EA8C6380EA0900E31808EAE2788A
:100E88004FEA9C1242F1000442EA0052C0F30D31CD
:100E9800D21941F10007A01841EA8E31CEF38742FA
:100EA80047F100078AEA080A891942F1000442EA70
:100EB8000A2A7F18084A44F100011AEB050A11EBC7
:100EC8000A01136050609760D1602DB0BDE8F08FC3
:100ED8004D1F00200D1B0020FD1A00202DE9F04FAA
:100EE800774BC5B018AC03F110052246186859684D
:100EF800083303C2AB421446F7D1002010227149CF
:100F0800DFF8C4E11BAC54F8043B1507149315D162
:100F1800C3F307251EF800604D5D013075408DF85C
:100F28005050C3F307454D5D8DF851501D0EDBB28F
:100F38004D5DCB5C8DF852508DF853300DF1500C4F
:100F480025460423664615F8108C1CF8017B013BE6
:100F580087EA080705F8017BF5D10432B02AD2D117
:100F68003A225A4C8DF8102022686F46CDF811208D
:100F780062686946CDF81520A268CDE90033CDF83E
:100F880019200422CDE90233ADF81E208DF81D305A
:100F980004AA087812F8015B01336840102B01F8A5
:100FA800010BF6D16A46694618A80BF03FF80025F0
:100FB800DFF81C81C5F58069B9F1100F28BF4FF023
:100FC80010091022002108A80CF01AF94A4608EB6B
:100FD800050108A80CF0EDF86A46002308A8117866
:100FE80010F801CB013381EA0C01102B02F8011B28
:100FF800F5D16A46694618A84D440BF017F8B5F5BF
:10100800806FD7D3022300258DF84030236810A9BC
:10101800CDF8413063680CAACDF84530A36818A80C
:10102800CDF849308DF84D50ADF84E500AF0FEFF1E
:1010380028490CAB17F8012B13F8010B0135424076
:10104800102D01F8012BF5D1002501274FF00209D9
:10105800DFF884A023683246CDF84130636818A8C9
:10106800CDF84530A36810A9CDF849303B0C8DF870
:101078004D307BBAADF84E308DF840900AF0D6FF6F
:10108800C5F58063102B28BF1023B446002208EB57
:10109800050E05EB0A001EF8011B1CF801BB013206
:1010A80081EA0B01934200F8011BF4D11D44B5F508
:1010B800806F07F10107CDD345B0BDE8F08F00BFC1
:1010C800592300208BDC000081DC00004D23002028
:1010D8004D1F0020FD1A00200D1B002010B58AB0FE
:1010E80000214FF480300BF07BFE2021394A3A482A
:1010F8000AF07DFE0C21394A39480AF078FE4FF48F
:101108008061384A38480AF072FE04F00BFC374B0D
:1011180001461860002840D00023354C354823701C
:101128000BF0AEF934480BF0ABF934480BF0A8F9E2
:101138004FF4004364224FF48061314800931E232A
:101148000BF09EF92C480BF09BF92E480BF098F900
:101158002D480BF095F92D492D48FFF711FC2D4925
:101168002D48FFF70DFC0020FFF7ECFC2B492C481D
:10117800FFF706FC0120FFF7E5FC2A492A48FFF79C
:10118800FFFB23781BB1294B186804F08BFA1A4827
:101198000AB0BDE810400BF073B9182204A80CF08F
:1011A8002FF84FF41053ADF80C308023ADF80E3003
:1011B8004FF48073059303F1AA63069310221B4B27
:1011C800054903A804F0B0FA194B18600028A3D108
:1011D8000123A2E701EEFFC05923002002EEFFC061
:1011E8004D23002003EEFFC04D1F00200800002003
:1011F800FC1A0020E7DA0000EADA00003ADB000017
:101208006EDB0000B1DB000001DC00000FC2000053
:1012180051DC000031C0000060DC000097BE000017
:101228000ADA0000350B00006FDC0000F403002030
:1012380004000020014B1B68184700BF0C00002069
:10124800014B1860704700BF0C00002030B585B016
:1012580004460D461022002168460BF0D1FF0223F8
:101268008DF80230044B2A462146684601930AF05D
:101278004DFB05B030BD00BF3D12000080B50546EE
:101288000E461746984603F02DFB03460CF048F827
:101298000446DFF81890424649F80030394630468F
:1012A800A84754F8090000F00FFC00BF0800000030
:1012B8002DE9F047058B04462807904611D40229EA
:1012C80005F0070540F0CC8020460BF0E6F878B131
:1012D8000138218B042811D8DFE800F0C2106D8591
:1012E800950001290CBF45F0100545F02005258320
:1012F80088F31188BFF36F8FBDE8F08701F0070A04
:10130800AA4500F0A5800027B9463E46A368002BF1
:1013180000F0BC8041F00801218388F31188BFF3F5
:101328006F8FA168002900F0BA800D68002900F0CD
:10133800B680334652462046D1F80480C047002D77
:1013480076D02B6829461D46F0E701F007035A1F9F
:10135800012A1BD8002221F00701062B276889B231
:10136800C4E9002209D13B4603E0628B0132628363
:101378001B68002BF9D141F00201204621830BF0B4
:101388008CF800287AD041F0200176E0042B0AD1AD
:1013980021F0070189B2204621830BF07EF810B1B5
:1013A80041F020012183218B01F0070AAA454FD083
:1013B8000027B946AAE7236921F0070141F0060191
:1013C800062DD3F8009021832DD1B9F1000F3FD01D
:1013D80041F00801218388F31188BFF36F8F2046FD
:1013E8003949C84729E021F00701236941F0040180
:1013F80089B2042DD3F804902183E6D000274FF05A
:10140800040A3E4682E721F00701236941F00501FD
:1014180089B2052DD3F808902183D6D000274FF044
:10142800050A3E4672E700274FF0060A3E466DE77A
:101438002B4687E7B9F1000FD1D1EFF311882023AC
:1014480083F31288BFF36F8F238B23F00803238362
:10145800258BEA062ED525F01003238305F0070512
:101468006669218B002EBFF670AF00232768C4E998
:10147800003321F0070141F001012183218B4FF056
:10148800000901F0070AAA457FF440AF002F9CD05D
:1014980041F00801218388F31188BFF36F8F002F73
:1014A800C8D03D6839463346524620460BF021F8ED
:1014B8002F46F4E7AB067FF51BAF25F02003238307
:1014C80005F0070500E700BF27C50000014B0360D2
:1014D80000207047A8D6000008B504480AF0D0FFDD
:1014E800BDE8084002480AF0CBBF00BF97DD000006
:1014F800CCDD0000014806F0DFBB00BFA8D6000025
:1015080038B5044618B90F4B0F485B6898476168AF
:10151800B1F5683F10D0B1F5680F0DD00B4DA94259
:101528000AD011F46861206807D0014608480BF01A
:1015380096FB00232360656038BD14220BF060FE23
:10154800F9E700BF2C010020FADD00002C5F5CA940
:10155800F808002008B560B34368B3F5683F0ED0BB
:10156800B3F5680F18D0144A934220D000684FF0A2
:10157800FF324FF0FF3302F0E9FD58B115E00122C8
:101588000368D3E8EF1F002903D1C3E8E02F002840
:10159800F7D10AD1002008BD0368084A1B7803F573
:1015A800807352F82330002BF4D00548F3E7054840
:1015B800F1E76FF4E040EEE72C5F5CA90000035010
:1015C800E98FFFFFEA8FFFFF08B520B34368B3F543
:1015D800683F09D0B3F5680F13D0114A93421DD064
:1015E800006802F02BFE14E000220368D3E8EF1F26
:1015F800012903D1C3E8E02F0028F7D109D0094811
:1016080008BD00210368084A1B7803F5807342F877
:1016180023100020F4E76FF4E040F1E70348EFE718
:101628002C5F5CA9E98FFFFF00000350EA8FFFFFE2
:1016380010B5044618B91D4B1D485B689847636888
:10164800B3F5683F2FD0B3F5680F2CD0194A9342F1
:1016580019D1236803BB4FF0FF324FF0FF33214607
:10166800154802F045FD08B923681BB90F4B13480C
:101678005B6898471422002120680BF0C1FD4FF4E5
:101688006863636008E0B3F5683F0DD83A2B03D070
:1016980040F6BA629342DED120680BF02AFB6368F9
:1016A80043F03A03636010BD054AF3E72C010020BC
:1016B800FADD00002C5F5CA9F808002020DE00009D
:1016C8003A00003A08B506494023142205480BF0B1
:1016D800B8FABDE808400449044806F0B1BB00BFA9
:1016E800F8030020F8080020B0D60000C4D6000097
:1016F80030BFFFF7FDBF00BF2DE9F04105460B4E97
:10170800DFF82C80324606EB0807CC1B2046094937
:101718000BF04FFDA01942460021083C0BF070FD6C
:101728002C6707F10800BDE8F08100BF0000000049
:101738000400000094D60000074A936893F90E103D
:10174800002907DB526993421FBF044A536843F0DC
:1017580080535360704700BF5C0A002000ED00E032
:10176800154B9A6A12F0007F9A6A14BF1E201D203A
:1017780012F0807F9A6A18BF1F2012F4801F9A6A9D
:1017880018BF022012F4002F9A6A18BF212012F401
:10179800802F9A6A18BF222012F4003F9A6A18BF55
:1017A800232012F4803F9A6A18BF24206FEA02426D
:1017B8006FEA12429A62704700ED00E010B5194BCB
:1017C8000246986A9C6A10F4805F14BF172016209E
:1017D80014F4006F9C6A18BF1820A40509D5986BEB
:1017E800986A000404D51AB19A6A22F400429A62EF
:1017F80019200C4B9A6A12F4806F9A6A18BF1A2043
:10180800D2050CD49B6A13F4005F18BF1C20054A4C
:10181800936A43F47F43936200230B7010BD1B202F
:10182800F5E700BF00ED00E010B51C4B0246986AD2
:101838009C6A10F0100F14BF1120102014F0080F2C
:101848009C6A18BF1220A40709D5586B986A00062D
:1018580004D51AB19A6A22F080029A6213200F4BBB
:101868009A6A12F0010F9A6A18BF142012F0200F1A
:101878009A6A18BF1520D40658BF9B6A074B9A6A04
:10188800920642BF5A6A22F400525A629A6A42F099
:10189800FF029A6200230B7010BD00BF00ED00E04C
:1018A800F0B5474B04465B6800258BB0C3F30803CB
:1018B80085F31188BFF36F8F02F07F40B0F17F4F3F
:1018C80011D102F00C0008280DD010074CBF0C46AF
:1018D80001250022033B8DF80720032B05D8DFE8FC
:1018E80003F02462665F2C46F3E700239DF8072087
:1018F800CAB902AE04F1200732462068616808348C
:1019080003C2BC421646F7D1099A002D53D0C2F340
:10191800080121B96FEA52226FEA42220992184659
:1019280002A90AF093FE0BB0F0BD254BDA6A9107C5
:10193800DBD4DA6A002AD8DBDA6A5200D5D55A69CC
:10194800A16942F480725A61BFF34F8FBFF36F8F62
:101958005A6931F8021C22F480725A61BFF34F8F22
:10196800BFF36F8F4DF60272914209D09A6AD2B2D4
:1019780042B101200DF10701FFF756FF0346B5E715
:101988002368B3E79A6A12F47F4F05D001200DF15E
:101998000701FFF713FFF1E79B6AB3F5803FA4D374
:1019A800FFF7DEFEEAE700200DF10701E4E700207B
:1019B8000DF10701EDE722F4FF7222F00102ADE715
:1019C80000ED00E0064B5A6942F010025A615A696C
:1019D80042F480625A615A6922F008025A617047DB
:1019E80000ED00E0EFF30880EFF3098101B57246DE
:1019F800FFF756FF01BD00BF002080F31488BFF336
:101A08006F8F002080F30A8880F30B880F4880F3DB
:101A1800088801F0B5FB00200D490860BFF34F8F1F
:101A280000F02CF8202080F311880A484FF4006158
:101A3800401880F30988EFF314800221084380F3EB
:101A48001488BFF36F8F00F0CDF80000C08C002021
:101A580094ED00E080430020002318460649D1F8A1
:101A68009020C2F30722934200DB7047C1F89830F8
:101A7800C1F8A0000133F6E700ED00E010B572B63A
:101A8800002484F31388FFF7E7FF23464FF0FF3065
:101A98000C4A03F120010133102B42F82100F8D140
:101AA80000234FF0FF30074A03F160010133102B88
:101AB80042F82100F8D162B6BFF34F8FBFF36F8FA2
:101AC80010BD00BF00E100E0084B9B6883420BD1CA
:101AD800EFF3058343B1064B5A6842F080525A60CF
:101AE8005A6A22F400425A6202F002BF5C0A0020DD
:101AF80000ED00E016498A684FF030001044EFF31B
:101B0800098C80E8F01F202080F31288BFF36F8FC4
:101B1800104F4FF000664A698A603E604FF07004CB
:101B2800141920680C4C2060506F0023536780F311
:101B3800118802F1300090E8F01F8CF3098802F157
:101B4800000004B50AF097FDBDE8044070470000A6
:101B58005C0A002004ED00E0140900201EF0040FC8
:101B68000CBFEFF30880EFF30980816911F8021CBC
:101B78000229FFD001B572460AF06EFD01BD00BF13
:101B880040B2002807DB01234109034A00F01F0087
:101B9800834042F82130704700E100E0054B4209DC
:101BA80053F82220012300F01F0003FA00F0104030
:101BB800704700BF00E100E040B2002801F10101D8
:101BC800ACBF00F16040064B4FEA4111C9B2ABBF50
:101BD80000F5614000F00F0080F8001319547047B9
:101BE80014ED00E00B4A08B50B4B22F07F029A6017
:101BF800BFF34F8FBFF36F8FD3F8882022F47002A2
:101C0800C3F8882002F0B2F902F082FF00F048F829
:101C180002F0ECF90000000000ED00E042F8203C82
:101C2800009B0B4942F81C3C019B21F0010142F842
:101C3800183C029B42F8081C42F8143C4FF0807391
:101C480042F8043C0023203A02654367704700BF0E
:101C58008512000000B50B4B15469860026F0A4BC1
:101C68000E461A60036E83F30B882C4686F30988A8
:101C78000020064B98472046002100220023044CF0
:101C8800204700BF5C0A00201409002087C6000016
:101C9800851200001022014B1A61704700ED00E028
:101CA800002320210348C2180133452B82F8001372
:101CB800F9D1704700E100E008B5EFF30583064A63
:101CC800103B02EBC30152F8330049688847BDE86E
:101CD8000840FFF731BD00BF20D400001FB5094CF4
:101CE800094A23460121094800F0FAF80023039322
:101CF800074B0121E41A01A80193029400F0FAF8B5
:101D080004B010BD0000072000000020D4D6000059
:101D18003002002010B50C7A0B6804F01F0223F083
:101D28001F031A43CB68640923F01F03054943EADC
:101D3800440343F00103C1F89800C1F89C20C1F89E
:101D4800A03010BD00ED00E010B5074BD3F890307F
:101D5800C3F30723013B984202D8FFF7DBFF10BD0E
:101D68006FF01500FBE700BF00ED00E02DE9F04F34
:101D78000F46144606464FF000084D4D85B0B8454D
:101D880080F29280D6F80490B9F1000F36D0B9F1FC
:101D98001F0F40F2878019F01F0F40F08380D6F89C
:101DA80000A01AF01F0F7DD150460AF0A4FC83460C
:101DB80009EB0A0001380AF09EFC834572D11BF139
:101DC800160F6FD05C456DDDC5F898B0D5F89C103E
:101DD800C5F898B0D5F8A03021F01F0143F01F0ACC
:101DE800D6E900321A44994202F1FF391ED1CA4598
:101DF80008D131465FFA8BF00AF086FC08F1010839
:101E08000C36BCE73146C5F898B0D5F89C3022F0BE
:101E18001F0203F01F031343C5F89C30E0B20AF019
:101E280073FC10F1160F3DD0441CE7E7C5F898B0D5
:101E3800D5F8A020013B23F01F0302F01F02134333
:101E4800CA453146E0B2C5F8A030E8D00AF05CFCDB
:101E580010F1160F26D0C5F898B0D5F89C209DF83B
:101E680008300AF1FF3A62F304038DF80830D5F818
:101E7800A0309DF808205B0863F347128DF808200E
:101E8800D6E900321344009323F01F035344A3EB15
:101E98000903013023F01F036946C0B20393FFF71B
:101EA80053FFBEE76FF01504204605B0BDE8F08F7C
:101EB80000ED00E00522044BC3F89420BFF34F8FD8
:101EC800BFF36F8F704700BF00ED00E0BFF35F8F77
:101ED8000022024BC3F89420704700BF00ED00E0D9
:101EE80010B5034C2278FFF741FF207010BD00BFEA
:101EF800792300202DE9F74F294D8A4606464FF0F1
:101F08000008AB46274FD0451BDAD6F80490B9F144
:101F1800000F3FD03168084601910AF0ECFB0199A7
:101F2800044609EB010001380AF0E5FB84424FF052
:101F380014021D4B08D002FB08F36FF015024BF892
:101F4800032003B0BDE8F08F14F1160F2C60F8D011
:101F58001978A142F5DD02FB08B0C7F89840C7F828
:101F68009840D7F89C4000F10801007B64F3040016
:101F78000871D7F8A0000C79400860F347140C7179
:101F8800D7F89C1021F01F016960D7F8A01021F044
:101F98001F01296108F1010814350C36B3E700BFA9
:101FA8001809002000ED00E079230020F0B5414930
:101FB800414CD1F890302568C3F307239D4287B080
:101FC80075D80020FFF782FF3C4BC1F8C03085422E
:101FD80016D13B4C01A82570FFF778FA0025064674
:101FE800384FAE4213D1002023783249D1F89020DF
:101FF800C2F30722934254DBFFF75CFF00202FE077
:10200800616801EB0011FFF785FE0130DFE70199F8
:10201800280101EB0513DA683A40B2F5001F21D018
:10202800B2F5800F2BD0B2F5801F38D15A689B6863
:102038000958013B22F01F0003440120844623F085
:102048001F0340EA4C10CDE902218DF8100002A9C7
:1020580020780593FFF778FE00281DDA6FF0150049
:1020680007B0F0BD5A689B680958013B22F01F0071
:1020780003444FF0020C012023F01F03E1E75A68E4
:102088009B680958013B22F01F0003444FF0000CE5
:10209800062023F01F03D4E723780133237001358A
:1020A8009FE7C1F89830C1F8A00001339EE74FF0D0
:1020B800FF30D5E700ED00E0E0D60000AAFF4400BD
:1020C800792300200000F0FF08B5024809F0FEFB64
:1020D800FEE700BF5CDE000008B5024B1B689847AE
:1020E800002008BD2C090020034B044A186093788F
:1020F80043F00203937070472C0900204800002029
:1021080008B50649064821F00701C1F1005202F559
:10211800E0220AF05BF9002008BD00BFC70C0120CF
:102128003009002000F01F0240090DD001280DD110
:10213800094B03EB8203D3F8002222F0E04242EA83
:102148000171C3F800127047044BF2E70023803294
:1021580053F82230FFDE00BF002884500025845049
:1021680038B50124134B144DC3F80045022303214D
:10217800C5F8D0360020FFF7D5FF20460321FFF72A
:10218800D1FFC5F804472146C5F804492120C5F800
:10219800004BFFF7C7FF21462020FFF7C3FF21466A
:1021A8000B20FFF7BFFF21460A20FFF7BBFF0020E7
:1021B80038BD00BF001000500040005007B50DF1B9
:1021C800070001F001F9114B98421CD14FF48062CD
:1021D8000F4B1049C3F8B8254FF40062C3F83C25EB
:1021E8009DF807000AF04DFC0B499DF807000AF01E
:1021F80043FC01209DF80730984001F0DFF80020EB
:1022080003B05DF804FB6FF00B00F9E70000AD0BBD
:1022180000A002502CA0025028A10250052370B53E
:10222800144D154E2C780134B4FBF3F303EB830300
:10223800E41A0AF0FBFB114A137823B156F824304C
:10224800C01A072814D94FF05023D3F8141141B1FC
:102258000021C3F81411D3F814312C700CB90123E0
:1022680013702C780AF0E2FB46F82400012070BDB8
:102278000020FCE77B2300203C0900207A23002073
:1022880048B1054B054A1B68B3FBF2F35843044BAE
:1022980043F00103184770475800002040420F00E0
:1022A800A0D60000014902480AF046B90CD7000040
:1022B800500900204FF47F032DE9F041D3F8302175
:1022C8000646072A0D46D3F8343120D1023B032BAA
:1022D80002D8124AD35CD3B14FF050244FF0010812
:1022E80000270520C4F81886C4F814760AF0C2FB43
:1022F8004046C4F814860AF0BDFBC4F81476C4F846
:10230800187630462B46BDE8F041002118474FF0BB
:1023180050230022C3F81426F3E700BF61DE000053
:10232800084B70B5C31A0D4607499B10044659431C
:10233800402206480AF017FA2B4601462046BDE817
:102348007040184780090020B76DDBB6BCD3000089
:10235800402373B50B4C0093041B0B460D460A49EA
:10236800A41061430646094A09480AF028FA011EE2
:1023780005DA30462B4602B0BDE87040184702B077
:1023880070BD00BF80090020B76DDBB631C8000002
:10239800BCD3000010B5EFF31184202383F3128817
:1023A800BFF36F8F074A136823F00201DB07116040
:1023B80002D401200AF071FB84F31188BFF36F8FF8
:1023C80010BD00BF200A00202DE9F843002201219A
:1023D80006460520FFF7F0FB114801F075F8114B90
:1023E800984219D101F080F800244FF01C090C27FD
:1023F800DFF834803569414609FB04500AF09CF83F
:10240800002807DB012307FB04551C44042CAB6799
:10241800F0D10020BDE8F8836FF00400FAE700BFB0
:102428002D2500000000AD0B18D700001FB50022B5
:102438000123CDE902236B46084ACDF800D0CDF838
:1024480004D00AF0EAF9002805DB4FF480420023A3
:10245800684601F077FF05B05DF804FB67C8000027
:102468000C22104B014602FB0033002030B4D3E9A4
:102478001C521867EFF31180202484F31288BFF3ED
:102488006F8F9C6F04F0C00444F002049C6780F3D3
:102498001188BFF36F8F1DB12B4630BC0248184717
:1024A80030BC704780090020BCD3000010B4EFF3A3
:1024B8001182202383F31288BFF36F8F17480168B6
:1024C80041F002040460C80707D482F31188BFF3FF
:1024D8006F8F012010BC01F01FB84FF05021D1F8C8
:1024E8000C04D1F80C14C907EFD5EFF3118083F36E
:1024F8001288BFF36F8F0A498B6F03F0C00343F054
:1025080002038B6780F31188BFF36F8F82F3118802
:10251800BFF36F8F002010BCFFF7A2BF200A002076
:1025280080090020092813D8DFE800F005101212EE
:10253800121212120E0C074B986F10F0070007D1F9
:10254800FFF78EBF0220FBE70320F9E70120F7E73A
:10255800704700BF800900202DE9F041012207469D
:102568003649D1E8EF3FC1E8E02F0028F9D133B967
:10257800334934484B60CB608A6009F0F0FF7B1E1A
:10258800012B2BD8012F07D14FF05023D3F81C343F
:1025980003F00303022B21D00AF0B2FB0546F8B979
:1025A800294B1B78E3B14FF0502302220646C3F8AB
:1025B80008234FF05024DFF89480D4F81824D4F876
:1025C8001834D20315D503F00303022B01D0012FD1
:1025D8000FD16DB386F31188BFF36F8FBDE8F0811B
:1025E800EFF31186202383F31288BFF36F8F012541
:1025F800DFE7C5B130460AF062F8D4F81835DBB227
:10260800012BDAD1D4F80421002AD6D00022C4F84C
:102618000421D4F804210222C4F818252022C8F87D
:102628008021A360C9E7002121200AF0D9FBE4E753
:102638004FF050230222C3F80423CFE77C0900207F
:102648006C0900209C0900207E43002000E100E086
:1026580008B507480AF0A8FA38B10648FFF744FD5C
:102668000448FEF7EDFD002008BD6FF01200FBE7FF
:102678000CD40000812600000A2838B50446074D0E
:1026880004D1AB680D2128465B689847AB680348BE
:102698005B68E1B29847204638BD00BF0CD4000003
:1026A800F0B5406801F01F04057B87B044EA451483
:1026B8000569002D63D0B2F5001F00F1100506D1A1
:1026C800214628460AF069FA002007B0F0BD002725
:1026D800B2F5800F01AE0197776039D1B3F1007F71
:1026E80014BF052304238DF804300023CDE90463C7
:1026F8000393836823FA01F111F001011AD1B2F1B1
:10270800A07F17D104F01F03620903F180032AD0C8
:10271800012A3AD11E4A52F82330DB070AD40DF1B8
:10272800030632462146284601F0FCF9194B984227
:102738001BD002962146284603AA01F0AFF8164B93
:1027480098421FD101222146284601F04DFABBE7E5
:10275800B3F1C06F05D0B3F1007F14BF012302238A
:10276800C1E70323BFE70D4AD5E73146284601F004
:1027780035FA094B9842DCD06FF00B00A5E76FF0F3
:102788008500A2E76FF015009FE751F82330FFDEC0
:10279800002884500400AD0B0000AD0B00258450C8
:1027A80038B545682B69B3B11035284601F006FAEB
:1027B800044680B90146284601F0CEF9084B9842F4
:1027C8000BD122462846074901F0A6F922460521E1
:1027D8000D20FFF7F1F9002038BD6FF00400FBE78A
:1027E8000000AD0BF12700004209034670B502D086
:1027F800012A17D070BD0D4E326951680029F9D0F1
:10280800012503F01F030C689D400029F2D08A6857
:102818002A4002D030464B6898472CB1236821469D
:102828001C46F2E7024EE7E72346F8E7E4D3000048
:10283800D0D300002DE9F04340F206354668D006B3
:1028480048BF0320337B02EA050558BFC2F3401096
:1028580087B001F01F07B5F5837F144647EA431791
:102868008DF8030044D00FD8062D18D007D8B5B17D
:10287800022D3FD06FF0150007B0BDE8F083B5F525
:10288800807FF7D101250AE040F20222954233D039
:10289800B5F5407F32D0B5F5007FEBD10225012395
:1028A800220303FA01F12BD573689960326972BB70
:1028B80007F01F037F0928D0012F75D13C4A02EB8E
:1028C800830284F48033D2F80012C3F30043C4F3C4
:1028D800404444EA430421F4706144EA800421F04E
:1028E8000F0144EA05230B43C2F800320020C3E776
:1028F8000725D4E70425D2E70525D0E70325CEE749
:10290800630344BF7368D960D0E72A4AD7E7103613
:10291800394630460DF1020201F004F914F4403F43
:1029280080460CD1394630460AF035F9224B984595
:10293800DCD130469DF8021001F04AF9D6E74FF095
:10294800000901AB3946304603AACDE90439CDE97F
:102958000199CDF80C9000F0A1FF174B984289D14E
:1029680014F4003315D09DF8033084F48034C4F394
:1029780000448DF80E3039464B46304603AA8DF890
:102988000C508DF80D4001F045F80B4B9842CDD016
:1029980070E7CDE9043339460DF10303304603AA45
:1029A800039300F07BFFF0E7803352F82330FFDE1B
:1029B80000288450002584500000AD0B036803F004
:1029C8001F025B09026004D0012B034818BF0020D6
:1029D80070470248704700BF002884500025845083
:1029E8002DE9F04F1546834640F2FF18DFF888912D
:1029F800DFF888A185B000EB8101594503D100209B
:102A080005B0BDE8F08FDBF80030C3F3C322082A15
:102A1800C3F3080400F2AA801B0E444508BF4FF018
:102A2800FF3419F80270222B00F2A380DFE803F0CC
:102A380012191F22252B22A1A1A1A13A67A1A1A1A8
:102A4800A1A1A1A1A1A16A7F8285A1A1A1888F923C
:102A580095989B00C5F80C45601C5DD10BF1040BE3
:102A6800CBE7C5F81445621CF8D000265DE0C5F830
:102A78000845F1E7C5F81045F5E7631CC5F80845B2
:102A8800ECD0002604E0661CC5F80C45E6D001260B
:102A980003A80394FFF792FF0122039B02FA03F3B2
:102AA800C36008E0C5F80845002FDCD1631CD5D009
:102AB800002606273246DBF80030039403F4004072
:102AC800002818BF002203A818BF0126019300920E
:102AD800FFF774FF039C019B00EB8400D0F80042D1
:102AE800C3F3412C009A3B0243EA8C03134304EAE4
:102AF8000A04234343EA4603C0F80032AEE7C5F8A8
:102B08000C45D1E7C5F86045601CDBF80030A5D05E
:102B1800C3F30043002BBAD0012603A80394FFF7A0
:102B28004DFF039B06FA03F383603246C3E7C5F8FB
:102B38006445E9E7C5F86845E6E7C5F86C45E3E7A5
:102B4800C5F82445621C89D001260022B3E7C5F8E0
:102B5800284581E7C5F83045F4E7C5F83445F1E77D
:102B6800C5F83845EEE7C5F83C4575E76FF0150040
:102B780046E76FF0850043E798DE0000F0F0FCFFC1
:102B88002DE9F04104460D4647680AF0B9F84FF0C0
:102B9800200888B9264B1B7873B16426606809F051
:102BA80008FFF0B9012009F065FF013EF6D10021C8
:102BB80021200AF015F9F0E7EFF31186314688F382
:102BC8001288BFF36F8F606809F0F3FEA8B986F327
:102BD8001188BFF36F8FEFE786F31188BFF36F8F0C
:102BE800E5E7EFF31186314688F31288BFF36F8F5C
:102BF800606809F0DEFE0028EED0FB6900201D7039
:102C08006368FA691B68C3F844250122C3F848259C
:102C1800C3F82001D3F82041C3F85801D3F858016C
:102C28009A6081F31188BFF36F8FBDE8F08100BF10
:102C38007E430020F7B50546002201210820FEF753
:102C4800BBFF0820FEF79CFF6B681A691868C0F87C
:102C58002425997D5A7D0A43198B1B7D0B43134309
:102C6800C0F86C356E68D6E9004313F0010348D00C
:102C78002F6907F1080000F0A7FB304B98425AD1A2
:102C8800387A04F10C0204F5907109F0FFFE387AE5
:102C9800012707FA00F000F091FB0823C4F800357B
:102CA800F369C4F844350023C4F84835A760D4F85C
:102CB8005831002BFBD00021C4F800156B6801AA1D
:102CC800DC68204609F048FE002805DB019B2268E5
:102CD80019791868FFF784FE08216A681368C3F831
:102CE8000015117A51B9126AC3F834250122C3F8C4
:102CF8003825C3F81011D3F810111A60002003B05A
:102D0800F0BD0822C4F80025F269C4F84425C4F8C7
:102D180048350123A360D4F82031002BFBD00023D1
:102D2800C4F82031D4F820310123E3604FF48073D4
:102D3800C4F80433BBE76FF00400E0E70000AD0B14
:102D48000123834070B5DC430B4AD2E8EF1F01EA48
:102D58000405C2E8E65F002EF7D14FF480328240C6
:102D68000648C0F80823BFF35F8FBFF36F8F0B428D
:102D780014BF0120002070BD4C0A002000500150F3
:102D880070B40E4922F07F46D1E90034D01AC31836
:102D980044F10004C1E90034A6F50013B3F5400F6F
:102DA80009D2074B1B681A0A1B069C19054B42F1EE
:102DB8000005C3E9004570BC01F06ABF400200206D
:102DC800500A002048020020D9B101230D4A83404F
:102DD800D2E8EFCF4CEA030CC2E8E1CF0029F7D1E3
:102DE8004FF48033084A8340C2F80433074BD3E8D2
:102DF800AF3FC340DB0742BF4FF40012044BC3F898
:102E0800002170474C0A002000500150480A002059
:102E180000E100E00D4B1868010A0006BFF35F8F60
:102E28000B4BD3F80435181841F10001B3F5801F96
:102E38000AD2084BD3E90023904271EB030303D273
:102E480010F1807041F10001704700BF500A002066
:102E580000500150480200202DE9F04F85B0164679
:102E68001F4604469DF840A0FFF76AFF0190FFF750
:102E7800D1FFB04271EB070352D23B4B301A67EBDC
:102E88000101984271F100014DD2384B03EB041354
:102E9800D3E902239F4208BF964258D04FF48038A6
:102EA800334908FA04F8204626F07F4BC1F84883D6
:102EB80009F0B0FD4FF00309584604F15005AD0084
:102EC800ADB205F1502504F5A87305F580350293D8
:102ED800029A20F07F4341F82230C1F84483D1F8A8
:102EE8000435244AC01A033820F07F4090422ED976
:102EF800286868B1D1F80435A3EB0B0020F07F40B7
:102F0800B0F5000F039322D9204609F083FD039BF7
:102F1800BAF1000F07D109EB030009F10109D7E75E
:102F2800BAF1000F09D06FF0150520460199FFF797
:102F38004BFF284605B0BDE8F08F01230E4AA34099
:102F4800D2E8EF0F1843C2E8E10F0029F8D107498A
:102F58000E982301C8500F9B01EB04120025C2E90B
:102F680002675360E1E700BF0100800030020020E3
:102F780000500150FDFF7F00480A00207FB5002562
:102F88004FF0FF304FF0FF31194C1A4B0226C4F8AE
:102F98000833C4F84833184BC4F80855C3E902018C
:102FA8004FF480334FF40012C4F80433134B01215B
:102FB800C4F804631520C3F880212A46FEF7FCFDF7
:102FC8001520FEF7DDFD01230D4AA3602360136081
:102FD8000C4B0D4A009328460023CDE90155FFF715
:102FE8003BFF3046FFF7B8FA284604B070BD00BF73
:102FF8000050015003000F003002002000E100E003
:103008004C0A0020892D0000FFFF7F002DE9F743BF
:103018002E4BD3F8042390070BD5D3F8042142B1E3
:103028000022C3F804212A4AD3F804311368013373
:103038001360264AD2F80433D90326D5254BD3E8A2
:10304800EF1F21F00100C3E8E40F002CF7D1CB07F4
:1030580002D4D2F84031C3B100251C4CC4F8405109
:10306800D4F84031FFF7D6FEEFF31182202383F323
:103078001288BFF36F8F184BD3E90267B042B9418A
:1030880006D282F31188BFF36F8F03B0BDE8F083D7
:103098004FF0FF38D3E900104FF0FF391D60C3E946
:1030A80002894FF48033C4F84833C4F84051D4F847
:1030B800403182F31188BFF36F8F0029E5D000906B
:1030C80032463B4628468847DFE700BF005001509C
:1030D800500A0020480A00203002002030B5431C66
:1030E800124C85B005D08442A8BF0446012CB8BF55
:1030F8000124FFF78FFE0E4B0C4DD3E90013401A45
:10310800B0F5000F0FD22218AA4228BF2A46002085
:1031180052180849CDE90100009143F10003FFF777
:103128009BFE05B030BD2A46F1E700BFFFFF7F00D8
:1031380040020020892D000008B5FFF76BFE024B06
:103148001B68C01A08BD00BF400200204FF40051A0
:10315800014801F091BF00BF7E2300204FF47F0398
:10316800D3F83021D3F83431072A05D1023B032B99
:1031780002D8024AD05C704700207047B3DE0000D6
:1031880008B5FFF7EBFF58B1644BD3F8202A3AB9DA
:103198000D21C3F8201A0121C3F81C19C3F81C29F2
:1031A8000022D30003F57F03D3F80013013107D0C1
:1031B800D3F800130132D3F80433202A0B60F0D17E
:1031C800FFF7CCFF002840F0A080FFF7C7FF40B111
:1031D800534B544AC3F830254FF050230122C3F80B
:1031E80058254FF47F03D3F83021D3F83431072A18
:1031F80009D1023B032B06D84B4AD35C1BB10022F2
:103208004A4BC3F84C25FFF7A9FF50B14FF05023A4
:10321800D3F80024D10742BF0022C3F81421C3F811
:1032280018214FF47F03D3F83021D3F83431072A1B
:1032380009D14FF05023D3F80024D20744BF6FF0D0
:103248000102C3F80024FFF789FF18B16522334B48
:10325800C3F80C274FF47F03D3F83021D3F8343167
:10326800072A16D1314BD3F82034002B11DA4FF04E
:1032780050230322C3F8182501229A60D3F80421A9
:10328800002AFBD00022C3F804210122DA60C3F827
:1032980018254FF47F03D3F83021D3F83431072AA7
:1032A80023D1023B032B02D8214AD35CEBB17E2207
:1032B8001A4B1B49C3F80C27C3F83C297F231D4A26
:1032C800C2F818310023C1F8043EC1F8083E01F5E0
:1032D8004821C1F81031C2F82431C2F82C3102F566
:1032E800FF1202F58052C2F8A032134AD2F88C308D
:1032F80043F44063C2F88C30104A114B1168C3F88C
:103308004415D269C3F84C2508BD2922034BC3F8DC
:103318000C270322C3F83C2757E700BF00400050A2
:10332800009003504400EFBEAFDE000000200350C1
:10333800ABDE00000020005000ED00E00080FF0040
:103348000060005030B50468ACB1B4FA84F30122CF
:10335800C3F11F03DBB29A4024EA0202D0E8EF5F10
:10336800A54204D1C0E8EC2FBCF1000FF6D1EAD198
:1033780002480B7030BD0248FCE700BF0000AD0BEF
:103388000200AD0B10B50368CB40DB0710D4012356
:103398008B40026843EA0201D0E8EF4F944204D11F
:1033A800C0E8EC1FBCF1000FF6D1F2D1014810BD06
:1033B8000148FCE70000AD0B0400AD0B014BC3F85E
:1033C80004057047007001500146014800F044B9F7
:1033D8005C0000200328F7B506462ED84FF0502190
:1033E800364B374A33F81000925DC1F808030025C0
:1033F8000A44012142F210744FF05027314B1160FA
:1034080033F816308E4203F150231D601B688DF887
:10341800071008BF0DF10705022E32D0032E40D049
:10342800012E1CD0D7F8183403F480333DB923B1EA
:10343800012009F01FFB013CF0D103B0F0BDD7F823
:10344800182402F003022A70002BF6D09DF807001A
:103458000128F2D109F00EFB013CDDD1EDE7D7F8E8
:103468000C3403F480333DB9002BE6D0012009F079
:1034780001FB013CF3D1E0E7D7F80C2402F001028C
:10348800E1E7D7F85C3403F480333DB9002BD4D09E
:10349800012009F0EFFA013CF3D1CEE7D7F85C241C
:1034A800ECE7D7F85434DB03C7D5002DCED1012083
:1034B80009F0E0FA013CF4D1BFE700BF02DA0000EE
:1034C800B7DE0000FAD90000044B1A7922B90122AC
:1034D80018601A710248704702487047540A002061
:1034E8000000AD0B0C00AD0B08B50A4B1B6833B1DF
:1034F8000520FEF753FB10B90520FEF741FB4FF0FE
:1035080050230122C3F81825C3F81425C3F88025D1
:1035180008BD00BF540A002010B5032845D8DFE8CD
:1035280000F01802554F00224FF48073012100204B
:1035380003F1502318601C68012402F15022146022
:10354800284A1268002A47D04FF05023C3F80413C2
:103558002BE04FF05023D3F81814D3F81824C903DC
:1035680012D502F00303022B05D0012B02D0002054
:10357800FFF730FF01234FF050220221C2F818351F
:1035880008224FF48273D2E7D3F81424D207F1D576
:10359800D3F81C2402F00302013A012AE7D8114AA1
:1035A80012681AB10222C3F8042310BDD3F804210B
:1035B800002AFBD00022C3F80421D3F80431F4E731
:1035C80018224FF490734FF48071B0E720224FF423
:1035D80092734FF40071AAE71A68002AFCD01860A9
:1035E8001B68E2E7540A0020F8B54FF05023012584
:1035F8000026D3F80443174F04B9F8BDB4FA84F091
:10360800C0F11F00830003F580739BB203F15023C0
:1036180005FA00F2196892B224EA02040029EBD0F4
:103628001E601B684FF05023022AC3F808230DD1EF
:10363800D3F81814D3F8181401F00301012905D19F
:10364800C3F81825C3F804239960D5E73B68C0B2CE
:103658009847D1E7540A00200079024B03EB001089
:10366800FFF770BE64000020036803F01F025B09C7
:10367800026004D0012B034818BF0020704702489D
:10368800704700BF0028845000258450034A43092E
:10369800D35C00F01F001844C0B27047BBDE0000C6
:1036A80070B50546FFF7F2FF0C4C083034F81030BF
:1036B8000E46DA0508D5C3F3432304EBC3022846B4
:1036C80054F8333052689847A3682BB131462846DE
:1036D800E268BDE87040184770BD00BF7400002064
:1036E80008B5FFF7D3FF034B083033F81000400B41
:1036F80008BD00BF7400002008B5FFF7C7FF034BE3
:10370800083033F81000C0F3400008BD74000020F2
:1037180008B5FFF7BBFF034B083033F81000C0F3C0
:10372800401008BD74000020034611F0010010B5D8
:10373800CCB20BD1A207C4F340000DD5074A106ADA
:1037480058601062003818BF012005E004490A6A71
:103758001A600A62002AEDD010BD00BF002884500C
:103768000025845010B5FFF791FF124A083032F84F
:103778001030D9051CD5C3F3432123F4F85322F89C
:103788001030002002F10E0434F8023F13F4807F59
:1037980003D0C3F3432399420AD001303028F3D130
:1037A800002342F831300448BDE81040FFF7EABD75
:1037B80010BD00BF74000020EC000020F0B50546E5
:1037C80000200126044607468C420BD1114BD3F842
:1037D8007C2132B10022C3F87C21D3F87C3140F03F
:1037E8000040F0BDE3B29B0003F580729B0806FA27
:1037F80003F31D420BD002F1A04202F55042D2F869
:1038080000C0BCF1000F02D01760126818430134E1
:10381800DAE700BF00D00050F7B506460846FFF7C4
:1038280035FF1A4F00F1080537F815300C46DB074D
:103838002AD5304609F08BF92046FFF769FF58B1C1
:103848002046FFF74DFF0022316800B201EB8003EC
:10385800C3F81025C3F810252046FFF783FF00237F
:1038680001A827F815300194FFF7FEFE019B00EB35
:103878008300D0F80022064B134043F00203C0F83F
:103888000032044803B0F0BD0348FBE77400002091
:10389800F0F0FCFF0000AD0B0400AD0B2DE9F04388
:1038A8001646804685B00846FFF7F0FE0D4631689B
:1038B800044609B32846FFF71FFF18B12846FFF74B
:1038C80027FF10BB00230DF10F02CDE900338DF85F
:1038D8000E308DF80F3028460B460DF10E0109F019
:1038E800DEF8484A04F1080132F8113023F00203E7
:1038F80043F0010322F8113073687BB328461F7820
:103908005968FFF7F9FE10B1E9B13F4829E03D4A8F
:1039180004F1080032F8103023F02003DB04DB0C3C
:1039280022F8103079B1032FEFD87168D1F804E08C
:10393800D8F800109EF800C001EB8C01A7B9C1F8B7
:103948001075C1F810752F4A04F1080132F81130CA
:1039580023F01C0343EA870322F81130B3683BBB0A
:103968002A4805B0BDE8F083D1F810E543EA4C33A6
:103978002EF0030EC1F810E5D8F8001043F020032C
:1039880001EB8C0EDEF8101522F8103021F44F31BF
:1039980021F44071CEF810152902DEF8108501F4E3
:1039A8007C5141EA074141EA0801CEF81015CAE7FF
:1039B8002846D3E90067FFF7D5FE002ED0D0114D79
:1039C800D5E90023964203D19F4201D1002209E0A4
:1039D8000F480DF10F01FFF7B5FC0C4B9842C0D111
:1039E8009DF80F2005EBC20308345F6035F81430EA
:1039F80045F8326043EA422343F4807325F81430D3
:103A0800AEE700BF740000200400AD0B0000AD0B52
:103A1800EC0000202DE9F0430C46804685B0204696
:103A280011461D46FFF732FE064629B32046FFF72A
:103A380063FE18B92046FFF76BFE18BB334F06F13B
:103A4800080937F8193013F01C0F02D04B78012BF6
:103A580018D001238DF80F3000234A1CCDE900133C
:103A680020468B1C0DF10F0109F019F837F81930B1
:103A780043F0030327F81930002D44D02046FFF700
:103A88003BFE18B9224805B0BDE8F083002295F83E
:103A980000C0D8F800301D4F03EB8C03C3F8102585
:103AA800C3F8102506F1080237F812104FEA8C0EF9
:103AB80021F02001C904C90C27F812106E7816B33A
:103AC800D8F80000AD787044D0F81035360423F4E7
:103AD800991323F4F853C0F81035230203F47C53E8
:103AE80006F440362D05D0F810E5334305F480156B
:103AF8002B4341EA4C3143EA0E0341F02001C0F860
:103B0800103527F812100348BDE700BF74000020E5
:103B18000400AD0B0000AD0B014BC3E90212704766
:103B28007400002010B508461446FFF7F1FD50B1A7
:103B38000846FFF7ABFD054B083033F81030044852
:103B48005B0B237010BD0348FCE700BF7400002026
:103B58000000AD0B0400AD0B70B5154D064695F889
:103B680080401CBB2146602205F1100009F048FB8B
:103B7800214630682E6F8E420ED10023C0F87C316A
:103B8800D0F87C3140F30730FDF7FAFF01230948EC
:103B980085F88030AB6770BDCBB29B0003F58072AF
:103BA8007C2B04BF845083580131E4E70248F2E7D4
:103BB800740000200000AD0B0C00AD0B034B93F814
:103BC8008000003818BF0120704700BF7400002033
:103BD8000148FFF7D7BB00BFE80000200148FFF706
:103BE800B1BB00BFE800002073B503681646D3F8E0
:103BF80004230546002AA8BF4FF000420846A8BF84
:103C0800C3F804230C46FFF783FD00B30846FFF70B
:103C180073FD0146D8B92046FFF762FD04B2A4003F
:103C28000346286804F58072815029688258214427
:103C3800D1F8102542F00102C1F810252EB1012259
:103C4800296802FA03F3C1F8043302B070BD2046B4
:103C5800FFF71CFD0E4B083033F81030C3F3820316
:103C6800042B11D0052B11D001A80194FFF7FCFCFF
:103C7800019A0369D34003F00103991C204602B05E
:103C8800BDE8704008F054BF0321F7E70221F5E7CB
:103C9800740000202DE9F04F684BDFF8A481D3F8B9
:103CA8000403D8F87010C0B289B040F00040FFF7A4
:103CB80085FD051E2FDAC24600235AF87C1F06A888
:103CC800CDE90633FFF730FD4FF0000B5D4B0DF1EA
:103CD80018090193019A12F8013B0192DA081AF8BF
:103CE800022003F0070322FA03F3DA071CD409F1D0
:103CF8000409BBF1000F14D0D8F870104FF0004041
:103D0800FFF75CFDD8F87C1006A8FFF70DFD00282A
:103D1800DAD125F000450124002D76D109B0BDE89F
:103D2800F08F4FF0010BD5E7474B5B440293D9F86E
:103D380000100029DBD091FAA1F1B1FA81F1029BC0
:103D48001C7841EA44142046FFF7A0FC083038F8F4
:103D58001070C808BB080393012319F8002001F06C
:103D6800070103FA01F122EA010209F8002005A877
:103D78000594FFF779FC059A039B803250F82220BE
:103D8800C7F382065B073746C2F3014222D52046B5
:103D98003946D6B2FFF784FC05A80594FFF764FC02
:103DA800059B803350F82330C3F301439E4207D16B
:103DB8000021204608F0BCFE3146204608F0B8FE37
:103DC80005A80594FFF750FC0122059B02FA03F3AE
:103DD8000362ACE7022A0CD10321204608F0A8FEB2
:103DE80006F00503012BEBD139462046FFF758FCB6
:103DF800E6E702212046039208F09AFE032EF3D04C
:103E0800039A032ADCD1022EEDE795FAA5F3B3FA5B
:103E180083F304FA03F29B0003F1A04303F5504334
:103E2800D3F81005D3F81015C0F30520C1F30141EC
:103E380025EA0205FFF734FC6EE700BF00D000500A
:103E480074000020CBDE0000CBDE000038B5EFF3B5
:103E58001185202383F31288BFF36F8F064B9C686C
:103E680008F0B5FE85F31188BFF36F8F2046BDE8D3
:103E78003840FDF729BE00BF5C0A002038B5094B61
:103E880053F82040013053F82050A54200D838BDDF
:103E9800636823B1204608F09DFE0834F5E72368DF
:103EA8009847FAE7C4D70000012270B52A4B0320CF
:103EB80086B01A70FFF7E2FFFDF70EFB08F0A6FECA
:103EC8000420FFF7DBFF254C254D2646AE4204F1C2
:103ED800300410D300F00CFC204C224EAC4226D308
:103EE80000F01AFCFDF7FAF81F4A137B23F00103D0
:103EF800137306B070BD54F80C3C059354F8103C8D
:103F0800049354F8143C039354F8183C029354F85F
:103F18001C3C019354F8203C009354E90A2354E9CB
:103F28000C0100F035FA54F8303C5E65CDE7D4E971
:103F38000A23B3F1FF3F08BFB2F1FF3F05D052EAB1
:103F48000301206803D100F0A7FC3034C6E73146EE
:103F5800183000F027FEF8E77E43002048D600001E
:103F680048D60000E1CD0000D002002008B5034883
:103F7800034A0021121A08F045FE08BD300200204D
:103F8800804300200023012270B586B0CDE90423C8
:103F98000F220193CDE9023214234FF4A0720E4D83
:103FA8000E4E03FB00550E4906EBC016044602FBF5
:103FB80000110C4B3046009500F0EAF9737B2C7425
:103FC80023F004037373084B013403EBC423EE603E
:103FD8006B6006B070BD00BF5C0A00205002002074
:103FE800804B0020D5CC000080430020BFB50020C6
:103FF800FFF744FF2D4B03F5006282F3088883F333
:104008000A880024E0232A4D2A4E85F82230EC77CE
:104018002C766C76AC7685F820406B6A264F43F494
:10402800E0236B6285F82340FDF7CCFCFDF732FEF8
:104038004FF0FF33AB62EB62FDF7B8FFFDF74EFEC2
:1040480040F201131D4D2846AB81C5E9184400F024
:1040580095FEB56008F0A7FD0120FFF70FFF0220CD
:10406800174DFFF70BFF00F08BFB164B756105939F
:10407800012315494FF48042CDE9034328463B46C6
:10408800CDE90144009400F083F906466A7B28468E
:1040980022F004026A7308F073FE2046FFF772FFED
:1040A8003A4631462846FDF7D5FD00BF804300203B
:1040B80000ED00E05C0A0020B13E00005003002043
:1040C800D0020020CDDE0000C04C0020002038B512
:1040D800054C064DAC4200D338BD204608F097FD8C
:1040E8000028F9DB1C34F5E78A0100208A0100204A
:1040F80073B50C46EFF31181202585F31288BFF3C1
:104108006F8FC5685DB125602B68C3608369013313
:104118008361002081F31188BFF36F8F11E052EAA9
:10412800030603D16FF00B002560F3E7CDE9002308
:104138000246083000F03CFA18B9034B9B685B69EB
:10414800236002B070BD00BF5C0A00202DE9F34176
:10415800044617461E46EFF31188202383F312887E
:10416800BFF36F8FC368334A7BB180689168884218
:1041780019D057EA060318D188F31188BFF36F8F57
:104188006FF00F0002B0BDE8F081916891F90E1050
:104198000133E36093682161A36088F31188BFF35A
:1041A8006F8F0020EEE72169F2E791F90E1090F980
:1041B8000E306FF07E029942A8BF19469142B8BFEF
:1041C80011468B422DDD08F08CFD054622464146FE
:1041D800CDE90076184800F0EBF90028E1D0EFF3BC
:1041E8001186202383F31288BFF36F8FA068D0B1A4
:1041F800236821699C420AD04BB193F90E30994249
:10420800A8BF19466FF07E039942B8BF194608F057
:1042180068FD40B13146084800F044FA6FF00A00E2
:10422800B0E70025D2E7002DF4D186F31188BFF35B
:104238006F8FF3E75C0A00207F430020F8B583689E
:104248000546002B3FD0234A926893423ED1C3686B
:10425800012B03D9013BC3600020F8BDEFF31187A0
:10426800202383F31288BFF36F8F0169806808F0F9
:1042780038FD2C68A54207D10023C5E9023387F32E
:104288001188BFF36F8FE7E7002CF5D0D4E900322F
:10429800002613605A60637BC4E9006623F00203BA
:1042A8006373A66004F1180008F0CCFDAC6094F9C3
:1042B8000E3020462B61A66708F062FD3946064895
:1042C80000F0F0F9C8E76FF01500C6E74FF0FF30CF
:1042D800C3E700BF5C0A00207F43002070B5EFF3FE
:1042E8001186202383F31288BFF36F8F0468A042DE
:1042F8001AD0CCB1D4E90032002513605A60637B30
:10430800C4E9005523F002036373A56004F11800A3
:1043180008F098FD2046A56708F032FD3146BDE853
:104328007040074800F0BEB9D0E902329A4218BF7F
:104338000133836086F31188BFF36F8F70BD00BFB0
:104348007F43002013B5EFF31181202484F31288F2
:10435800BFF36F8F846844B1013C846081F3118896
:10436800BFF36F8F002002B010BD52EA030406D1DC
:1043780081F31188BFF36F8F6FF00F00F3E7CDE97A
:1043880000230246014800F013F9ECE77F430020C0
:104398002DE9F043984685B000F15803C0E916337B
:1043A800109B002603730423073222F0070543738A
:1043B8000F9B01EB05090F4683734946C0E9066662
:1043C8008660C6730446FDF797F90E9B073020F008
:1043D8000700A066C4E9187502930D9BA9EB0009B4
:1043E80001930C9B4A460093394643462046FDF705
:1043F80015FC054B66659B6803B1DB6E4846E366B2
:1044080005B0BDE8F08300BF5C0A00206FF00A0128
:10441800084A93689967084958674B6843F080537E
:104428004B60002383F31188BFF36F8F9368986FF5
:10443800704700BF5C0A002000ED00E070B590F9FD
:104448000D20437B002A39DBD90637D18269002A3F
:1044580034D11D4C63F07F032246437352F8183F52
:1044680093422CD1E169C0E900210860E06111E0C4
:104478009942F8D01B68002BF5D090F90E5093F9AB
:104488000E60B542F4D0AE42F2DD5968C0E90031A1
:1044980008605860A569954200D005B9E568A36829
:1044A8005A7BD20604D1DA897F2A01D9AA6942B196
:1044B800AB4202D0284600F0D3FA656170BDE169CD
:1044C800D9E76361FAE700BF5C0A002038B590F9C4
:1044D8000D200146002A437B04DA03F07F0343736F
:1044E80008F014FC0D4D2A4652F8184FAB68944258
:1044F80000D004B9EC688B4207D05A7BD20604D1AD
:10450800DA897F2A01D9A2692AB1A34202D02046BA
:1045180000F0A6FA23466B6138BD00BF5C0A002094
:1045280070B590F90D200146002A437B04DA03F0A8
:104538007F03437308F0EAFB1C4C4B7B224663F075
:104548007F034B7352F8183FE069934207D1C1E9E2
:1045580000200160E16111E09842F8D01B68002B4F
:10456800F5D091F90E5093F90E60B542F4D0AE42F1
:10457800F2DD5868C1E9003001605960A569A36897
:10458800954200D005B9E5688B4207D05A7BD20620
:1045980004D1DA897F2A01D9AA692AB1AB4202D0AB
:1045A800284600F05DFA2B46636170BD5C0A002066
:1045B800F8B5124B0C46DDE9067611469868104AA4
:1045C8001060EFF31182202282F31288BFF36F8FFD
:1045D8009D68284608F0ACFBB6F1FF3F08BFB7F16D
:1045E800FF3F06D03A463346064905F1180000F069
:1045F800D9FA2046BDE8F840FFF708BF5C0A00205A
:104608007C0A0020E1CD0000F8B50446EFF31186DE
:10461800202383F31288BFF36F8F437B49B2DA06F6
:1046280017D18269AAB903F07F031D4D437308F0BF
:104638006DFB2A46437B817363F07F03437352F813
:10464800183F93422AD1E869C4E900200460EC616C
:1046580016E00020A17386F31188BFF36F8FF8BDB1
:104668008342F1D01B68002BEED093F90E70B9424B
:10467800F6D08F42F4DD5968C4E900310C605C6003
:10468800AC69944200D004B9EC68AB689C4202D093
:10469800204600F0E5F901206C61DCE7E869E2E713
:1046A8005C0A002049B9EFF3058030B9054B5A6917
:1046B8009B689A4201D0FFF7A9BE81F31188BFF326
:1046C8006F8F70475C0A0020034648B9EFF30582F4
:1046D80032B9064A51699268914201D0FFF796BEF5
:1046E80083F31188BFF36F8F704700BF5C0A002007
:1046F800EFF31181202383F31288BFF36F8F054BEB
:104708009A68D37B013BD37381F31188BFF36F8F12
:10471800704700BF5C0A002070B5EFF311862023B4
:1047280083F31288BFF36F8F144DAB68DA7B0132C5
:10473800DA732A4652F8184F944200D004B9EC684C
:104748005A7BD20604D1DA897F2A01D9A2692AB113
:10475800A34202D0204600F083F923466B6186F31A
:104768001188BFF36F8FEFF31180202383F3128832
:10477800BFF36F8FBDE87040FFF7A6BF5C0A00204B
:10478800024B03F11802C3E9062270475C0A0020B5
:1047980070B5EFF31186202383F31288BFF36F8F70
:1047A8001B4CA168E0690B68814214BF1A460022BD
:1047B80049680B605960A368E1692AB9154AC3E9D9
:1047C80000210B60E3610CE093F90E0092F90E50A2
:1047D800A84218D0854216DD5168C3E900210B6054
:1047E8005360A5690B4B9D4200D005B9E568A368E5
:1047F8009D4202D0284600F033F965613046BDE895
:104808007040FFF703BE8A42D8D01268D5E700BFD0
:104818005C0A0020740A002050EA01032DE9F041E7
:1048280005460E4604D1FFF7B3FF0020BDE8F0812E
:10483800831C71F1FF3324DB08F025FB4419EFF3E7
:104848001188202383F31288BFF36F8F0F4F104B0B
:10485800B8681860FFF73AFEB8680E492A4633462A
:10486800183000F09FF9BA684046537B43F00403C0
:104878005373FFF7CBFD08F006FB201A20EAE0701F
:10488800D4E76FF00104241AD9E700BF5C0A0020BE
:104898007C0A0020E1CD000038B50446183008F045
:1048A800D1FAEFF31185202383F31288BFF36F8FBA
:1048B800637B5A0704D485F31188BFF36F8F38BD23
:1048C80023F0040320466373FFF7B8FDEFF3058375
:1048D800002BF0D12946BDE838400148FFF7E2BE79
:1048E8007F430020014B9868704700BF5C0A002096
:1048F8002DE9F8430446EFF31187202383F3128848
:10490800BFF36F8F067B16F001060DD087F3118871
:10491800BFF36F8F002383F31188BFF36F8F0423D6
:10492800184602DFBDE8F883437B1A0704D587F3EE
:104938001188BFF36F8FF5E7D90943F0080252D108
:104948004273A36813B1204608F0E8F904F118008F
:1049580008F078FAA56D04F15808A84511D04FF071
:10496800000975B1284608F0D9F905F1180008F0D2
:1049780069FA2846C5F87890FFF760FDA56DA84547
:10498800EFD11D4DAB689C4204D1EFF30586003E84
:1049980018BF0126D5F81880184A904502D0B8F1FA
:1049A800000F01D1D5F80C80434502D0404600F0F5
:1049B80057F8C5F8148056B140F20113104EB38170
:1049C80000233046C6E9183300F0D8F9AE60AB686A
:1049D8009C42ACD1EFF30583002BA8D13846BDE843
:1049E800F843FFF713BD03F07F0343F00803437355
:1049F80008F08CF9A5E700BF5C0A0020740A0020C3
:104A0800500300200122044BC01A044BC010584325
:104A1800034B1A54704700BFD0030020ABAAAAAAC0
:104A28007F430020C3897F2B12D80A4B1B6863B1D0
:104A3800094B90F90E201B689A4209DB437BDB0681
:104A480006D1064BC31A18BF012303F001007047B3
:104A58000023FAE7840A0020800A00205002002080
:104A680070B50E4B0E4C1E7C054606EB460304EB58
:104A7800C304204608F0E6F900220A4B28469A5556
:104A8800FFF7D0FF48B1084B2046BDE870401A68D0
:104A98000649013AD31700F085B870BD5C0A0020BA
:104AA800D00300207F430020840A00200D4A000024
:104AB80038B5EFF31185202383F31288BFF36F8F86
:104AC800104B114A9C681068A04206D1FFF7C8FF36
:104AD80085F31188BFF36F8F38BD00211B7C1160EF
:104AE8000A4AD35C002BF3D02046FFF79BFF00282F
:104AF800EED0637BDB0602D12046FFF711FD20468E
:104B0800E4E700BF5C0A00207C0A00207F43002005
:104B1800074808B5074A0849121A08F075F8BDE8A9
:104B280008400648064A0749121A08F06DB800BF3F
:104B3800000000202C020020F4DE0000000000200D
:104B480000000020F4DE0000024B1868984208BFFD
:104B580000207047F8000020034B1B680BB9FEF7D4
:104B6800EBBA0020704700BF880A002030B570B14A
:104B78000B4B5B6898420AD0036843B1D3E9042120
:104B8800D0E90445121941EB0501C3E90421D0E934
:104B9800003213605A600023C0E9003330BD00BF03
:104BA800F8000020B3F1FF3F08BFB2F1FF3FF8B5AE
:104BB80004461D4616465AD08160EFF3118720231C
:104BC80083F31288BFF36F8F013275F1FF3321DA57
:104BD8006FF001032B49D1E900209B1A4FF0FF32F7
:104BE80062EB00009E1B60EB0500012E70F10003D4
:104BF80001DA01260020C4E90460FFF7A5FF224E70
:104C080084467068BCF1000F0DD1C4E900600460EF
:104C180074601CE0FFF7A0FF013645F10005361867
:104C280045EBE070E7E7DCE90425D4E90431934279
:104C380071EB050E1CDAD21ADCF8043065EB0105BD
:104C4800CCE90425C4E900C31C60CCF80440FFF794
:104C58007BFF844207D10D4B1C6824B908F0D9F8B2
:104C68002146FEF73BFA87F31188BFF36F8FF8BD33
:104C78009B1A61EB05018445C4E90431C5D0DCF811
:104C880000C0BFE7E8030020F8000020880A0020E1
:104C98002DE9F047EFF31185202383F31288BFF342
:104CA8006F8FDFF8A0900026C9F800000027FFF7F3
:104CB8004BFFDFF89480D9F80030D8E900ECD91719
:104CC80050B1D0E90442A34271EB020A1ADAE41A9D
:104CD80062EB0102C0E90442002413EB0E034CEB23
:104CE8000101C8E90031C9F8004008F092F82146EE
:104CF800FEF7F4F985F31188BFF36F8FBDE8F0472D
:104D0800FFF7D6BE14EB0E024CEBE473C0E9046760
:104D1800C8E90023FFF72AFF85F31188BFF36F8FD7
:104D280083689847EFF31185202383F31288BFF334
:104D38006F8FD9F800301B1BC9F80030FFF704FF4C
:104D4800B9E700BF880A0020E803002010B5EFF398
:104D58001184202383F31288BFF36F8FFFF7FCFEC3
:104D68000346054AD2E90001181841EBE37184F3C0
:104D78001188BFF36F8F10BDE8030020014BC36695
:104D8800704700BF8C01002038B5064C064DAC4278
:104D980001D3002038BD2046D4E9011208F077F885
:104DA8001434F4E78C010020A001002001680E4AA9
:104DB8000346914215D1C169A2F11022A2F1EF1266
:104DC80091420ED18268012A0BD8C26812B10169DA
:104DD8008A4206D0586928B19B691B1A5842584123
:104DE80070470120704700BF55AA00FF70B50D4BF2
:104DF8009E68A6B13046FFF7D9FF044678B9F36834
:104E08006BB935690DB9204670BD2846FFF7CEFF4E
:104E180028B9EB68B34202D12E462D69F2E7012486
:104E2800F1E700BF8C0A00202DE9F041444B454CC6
:104E380005461B6820468846984718B10024204636
:104E4800BDE8F081A4F1140754F8144CFB68DCB1F8
:104E5800BC68CCB1002D66D0B8F1000F65D008FB56
:104E680005F6B6FBF5F5A84561D1311D5FD8B20747
:104E780011D026F0030204321C4603E06168914217
:104E880057D2A469002CF9D12F4B2E481B6898479C
:104E98000028D4D0D2E73246EEE7891A232904F154
:104EA80020051CD80123A360D4E90523AAB1936186
:104EB800A3690BB162695A610023C4E905333B69F0
:104EC800DB0703D5FFF792FF002835D132460021D2
:104ED80028462C4608F094F9D6E7FB60E8E702F18B
:104EE800200C04EB0C032039C3E90110DC602169B4
:104EF8001648196144F80C00A0F11020A0F1EF1039
:104F0800D86101B1CB6061695961A069986141B10B
:104F18008B61996901B14B6101212361C4E90121C8
:104F2800CAE7FB60F5E72C46AEE74446ACE7044623
:104F3800AAE7A0680028B0D0012006F0B9FC00BF9D
:104F480024010020A00A00202001002055AA00FF0B
:104F580070B5464B464C05461B68204698470028C6
:104F680040F08280002D43D054F8143CA4F114067C
:104F7800002B3DD0B268002A3AD09D4203D3726814
:104F880013449D4202D3012006F092FCA5F12004AF
:104F98002046FFF70BFF0028F5D155F8183C012BE8
:104FA800F1D155F8143C45F8180C3BB39A682ABB64
:104FB80055F81C2C02F120015A680A445A6055E938
:104FC80005321A6155F8145C2B6903B1DD602022A3
:104FD8000021204608F014F9286910B18368002BD5
:104FE8002ED033699B0703D5FFF700FF0028CAD1ED
:104FF800BDE870401F4B1E481B68184755F8100C39
:1050080000282AD0836843BB42686368134420336E
:10501800636003692361D4E905239AB9CBB943696D
:1050280063618269A261B3B19C61A36903B15C61E8
:10503800236903B1DC602022002108F0E1F8D0E701
:105048002C46E1E79361A369002BE8D062695A61B5
:10505800E5E7F360F7E7F460E7E7F36845F8083C4D
:1050680003B15C61F460BCE770BD00BF240100209F
:10507800A00A00202001002038B50C461C2200217F
:105088000546154808F0BCF8144B15481B689847A6
:105098001449154800F038F8232C1CD915F00303DF
:1050A8001FBF043CE418C3F10403ED182246002195
:1050B800284608F0A5F8084B0C49C3E90054203CE1
:1050C8009D606C609A6811609A68A1F11021A1F145
:1050D800EF11D161DA6038BD8C0A00202801002068
:1050E800A00A0020594F0000314E000055AA00FFC9
:1050F800014B1B68184700BF04010020014B1B68C7
:10510800184700BF00010020024B1860024B002026
:1051180019607047040100200001002010B50A46FC
:10512800044619B1024B00211B68984710BD00BF07
:1051380008010020F8B50D4E0D4C0E4D33680E4891
:10514800984767782B680C48984733680B48984706
:10515800022F08D12478E31F5C425C412B68074882
:1051680098472046F8BD0024F8E700BF2401002036
:10517800A80A0020200100201000002018000020AC
:105188000E4B0340B3F1607F06D1B1F5885F14BFC1
:105198006FF0860000207047B3F1707F0BD101F4E7
:1051A800E043B3F5005F06D111F4E06F0CBF6FF078
:1051B8008600002070476FF0860070470000C07FAF
:1051C8008A42F8B506460C4600F0DB806F4922F4A7
:1051D800FF7323F001038B420ED06D4B22F0FF01C9
:1051E800994209D06B4822F47F7323F0030383426A
:1051F80002D0694B994228D1684B24F0FF019942AB
:105208000FD114F0FF000BD0654B40F000709842AE
:1052180040F0B98082EA0400FF288CBF00200120FA
:10522800F8BD5B4B9942ECD0A3F588539942E8D07E
:1052380024F4FF7323F00103B3F1062FE1D056489D
:105248008142DED053498B42DBD004F0FE43B3F1F8
:10525800A06F14D102F0FE43B3F1A06F40F0938029
:1052680082EA040333F47E1340F08D8014F4004086
:10527800D6D0C4F30540C2F305429042CDE7B3F15E
:10528800407F6AD102F0FE43B3F1407F7BD182EACE
:10529800040535F47E1576D131462046FFF770FFB8
:1052A800002870D13F4B12F47C1703EA02031BD08D
:1052B800B3F1607FC2F305473FD13B49D3B243F016
:1052C80000738B423DD003F17E43043B112B01D880
:1052D8003649CD5C14F47C1FC4F3054333D1BD4279
:1052E80014BF002001209BE7B3F1607F0DD12E4948
:1052F800D3B243F000738B421DD003F17E43043BCD
:10530800112BDAD82A49CF5CD7E7B3F1707FE1D106
:1053180006F4E043B3F5005F03D10127C6F3022387
:105328009F4006F4E043B3F5005FD3D10125C6F3EF
:1053380002218D40CEE71027BFE7B3F1707FC9D1B6
:10534800EFE71025C6E712F47C1F01D1AB4218D055
:1053580022047FF565AFBB425FE7B3F1106F12D14E
:1053680024F01F6020F4702068B902F0FE43B3F106
:10537800106F7FF455AF0F48104040F01060A04206
:10538800AEE701204CE700204AE700BF0002000614
:1053980000130006000400060009000600030006CA
:1053A800FF0000020000C07F03000002D2DE000000
:1053B800D2DE00000000FFF6074B20F47E10984272
:1053C80006D10739072934BF00206FF086007047DF
:1053D8006FF08500704700BF0001400500F0FE43F4
:1053E800B3F1A06F3FD1214B20F0FF029A4203D1C5
:1053F80010F0FF0027D170471D4B9A4220D0A3F52B
:1054080088539A4218D020F4FF7323F00103B3F1B4
:10541800062F0DD017498A4206D0174A93421BD14E
:1054280010F0FF000FD1704710F0FF000BD170474C
:1054380010F0FF0007D1704710F0FF0003D170474C
:1054480010F0FF0011D00D4B40F00070984214BFCF
:1054580000206FF08600704710F4004F0CBF00204A
:105468006FF0860070476FF08600704700030006F3
:10547800001300060009000600040006FF000002F1
:105488002DE9F843884617461C4600F08DFB054673
:1054980088BBD8F80060B6F8009009F4E043B3F58B
:1054A800804FB36808BF27F0010737EA03031AD112
:1054B8000CB3254B24F0FF029A421FD114F0FF03CE
:1054C80004D0224A43F00073934232D02246484621
:1054D800F168FFF775FE074668B922464846316904
:1054E800FFF76EFE70BB6FF0840500233046C8F8E6
:1054F800003000F08DFB2846BDE8F883144B9A4233
:10550800DCD0A3F588539A42D8D024F4FF7323F053
:105518000103B3F1062FD1D00E498A42CED00E4AEC
:105528009342CBD004F0FE43B3F1407F04D123046F
:10553800CCD56FF08605D8E7B3F1A06FF7D0034B51
:105548009C42C2E73D46D6E700030006FF00000282
:1055580000130006000900060004000670B5114B90
:1055680005461B6810480E469847044618B16FF068
:105578008F04204670BD6B6933602B7F012B04BFFD
:1055880002232B77094B18BF30601B68064818BFE9
:105598006FF0960498470028EBD0002CE7D06FF006
:1055A8009604E6E7240100202000002020010020C6
:1055B80000232DE9F34113604768D0F814800446AE
:1055C8000E463846114607F0C9FD054688B93846E3
:1055D80007F0C6FD054660B9FFB277B9B8F1000F0C
:1055E80005D1A36823F0031323F47F4363B16FF05D
:1055F8008605284602B0BDE8F0810121606907F000
:1056080087FD0028EDD1F2E74FF6F87362889A42D9
:1056180027D8154B15481B682779984710B16FF0A4
:105628008F05E6E707B901A8314600F075FA104B77
:1056380005461B680D48984710B1002DD9D1EEE7F3
:10564800002DD6D10FCCD6F800C066460FC694E818
:10565800070086E80700002FCBD1019BCCF8143057
:10566800C7E76FF08505C4E724010020200000206B
:105678002001002010B5044660B1074B07481B689D
:105688009847204607F0E3FCBDE81040044B034868
:105698001B68184710BD00BF24010020200000200F
:1056A8002001002037B50446C0B101A900F07CFAFA
:1056B800044698B9194B1A481B689847194DF0B910
:1056C8000198037F032B11D107F033FD2B680446A3
:1056D8001348984728B10CB96FF08F04204603B0DF
:1056E80030BD002C08BF6FF08704F7E7022B12D1FA
:1056F800032303770379FF2B08BF6FF08404019815
:1057080007F017FD2B68002818BF0446044898477F
:105718000028E3D0DFE76FF09604F0E724010020CB
:1057280020000020200100202DE9F04116461F46E8
:10573800002288B0038805468846CDE904220796EA
:105748003A60002E62D0B6F1005F80F09E8023F0B0
:10575800FF03B3F5E24F02D0B3F5824F22D12846BA
:1057680007F0AAFB0446002840F08380EB686BB181
:105778006A885AB12B8803F44F41B1F5824F05D19D
:10578800DBB2222B37D02DD8122B39D0424600233A
:1057980008EB060112F8010B914243EA0003F9D124
:1057A800002B33D0284605AA04A9FFF701FF0446B9
:1057B800A0B9049B9B6A63B3049B41465A88284658
:1057C800069206AA029203F1280201929A6A0092AE
:1057D8005B6A324607F0D3FC044678B30498FFF7B7
:1057E80049FF46E0273BDBB21B2BCFD8284921FADB
:1057F80003F3DB07CAD50732B6EBD20FC6D205E0F2
:1058080040F209239A42F6D1402EBFD86FF08604A1
:105818002FE06B681B0A07D10799049807F0D7FB9C
:1058280004460028C8D0D9E732464146284607AB87
:1058380007F0A0FC04460028EED0CFE70499069BA9
:105848004A88D2B94B804FF6F873069A04989A4260
:1058580018D82B8813B102889A4210D16B8813B1DB
:1058680042889A420BD13946FFF778FE0446002851
:10587800B4D1204608B0BDE8F0819A42E3D06FF079
:105888008604ABE76FF08504A8E76FF08504F0E7BE
:105898000102000C70B51D4E1D4C33681D48984719
:1058A8002378590744BF23F00403237023789A0709
:1058B80005D500F017F9237823F002032370164D5D
:1058C80014482B689847336814489847637813B18D
:1058D800134807F06CFC0023042111486370FFF79C
:1058E8001DFC2B680D48984733680A489847237869
:1058F800DB0705D507F03DFC237823F0010323706F
:105908002B680448BDE87040184700BF24010020F8
:10591800A80A002018000020200100201000002004
:10592800AC0A00202DE9F041FFF704FC18B100246F
:105938002046BDE8F081364F36483B689847044614
:1059480020B16FF08F04FFF7A5FFF1E7324D2B78F8
:10595800D80706D407F00BFC04462B7843F0010364
:105968002B702E4E2B483368984710B1002CE8D086
:10597800E9E7002CE7D13B68264898470446002809
:10598800DFD12B78990706D400F0A4F804462B78C9
:1059980043F002032B7033681E4898470028E5D16E
:1059A800002CD0D13B681B4898470028C9D13368E0
:1059B800184895F8008098470028C2D13B681848D5
:1059C800984704460028BCD16B7843B918F0010FFA
:1059D80005D0144807F0E9FB022304466B703368CE
:1059E8000F4898470028C1D1002CACD13B68094822
:1059F80098470028A5D12B7806485A075CBF43F082
:105A080004032B7033689847002890D099E700BFAB
:105A18002401002018000020A80A002020010020EE
:105A280010000020AC0A002038B5074C074B204670
:105A38001B689847064B204693F88055054B1B6812
:105A48009847284638BD00BF1800002024010020D0
:105A5800B00A00202001002000F140421F2A38B57A
:105A680004460D460CD82C21194B01FB02331A7F32
:105A7800022A02D15A69824218D06FF08B001FE0C7
:105A8800012107F045FBE0B1114A00201346117FC0
:105A9800022902D15169A14205D00130202802F122
:105AA8002C02F4D1E9E72C2202FB00331A7F022AE8
:105AB8000AD11A6A511C07D0002001321A622B60E1
:105AC80038BD6FF08700FBE76FF09600F8E700BF7E
:105AD800B00A00200122024B002083F8802570477D
